:03000000020FFAF2
:0C0FFA00787FE4F6D8FD758107020F73C4
:07101800313233343536009C
:100F7300120E2C7BFF7A1079187D067C007F1812E5
:0E0F83000D407FA07E0F120F91120F4B80E5E4
:1008000000000000000000000000000000000000E8
:10081000000000F80000000000000033300000007D
:1008200000100C06100C0600000000000000000084
:1008300040C07840C0784000043F04043F040400F6
:10084000007088FC08300000001820FF211E000006
:10085000F008F000E018000000211C031E211E001B
:1008600000F00888700000001E21232419272110A1
:1008700010160E0000000000000000000000000044
:10088000000000E0180402000000000718204000EB
:1008900000020418E00000000040201807000000DB
:1008A000404080F0804040000202010F010202003F
:1008B000000000F0000000000101011F0101010023
:1008C000000000000000000080B070000000000088
:1008D0000000000000000000000101010101010111
:1008E00000000000000000000030300000000000A8
:1008F000000000008060180400601806010000007D
:1009000000E010080810E000000F102020100F0079
:10091000001010F8000000000020203F2020000000
:100920000070080808887000003028242221300058
:1009300000300888884830000018202020110E0060
:100940000000C02010F8000000070424243F240009
:1009500000F80888880808000019212020110E00DE
:1009600000E0108888180000000F112020110E00F0
:1009700000380808C83808000000003F00000000E8
:100980000070880808887000001C222121221C00A9
:1009900000E010080810E0000000312222110F00D2
:1009A000000000C0C0000000000000303000000067
:1009B00000000080000000000000806000000000D7
:1009C00000008040201008000001020408102000F0
:1009D000404040404040400004040404040404003B
:1009E00000081020408000000020100804020100D0
:1009F000007048080808F0000000003036010000D0
:100A0000C030C828E810E0000718272423140B0082
:100A10000000C038E0000000203C230202273820FC
:100A200008F8888888700000203F202020110E00E0
:100A3000C0300808080838000718202020100800D7
:100A400008F808080810E000203F202020100F00C0
:100A500008F88888E8081000203F2020232018008C
:100A600008F88888E8081000203F200003000000F4
:100A7000C03008080838000007182020221E020095
:100A800008F808000008F808203F210101213F2054
:100A9000000808F8080800000020203F202000007F
:100AA00000000808F8080800C08080807F0000006F
:100AB00008F888C028180800203F200126382000A8
:100AC00008F8080000000000203F2020202030000F
:100AD00008F8F800F8F80800203F003F003F200029
:100AE00008F830C00008F808203F200007183F0031
:100AF000E01008080810E0000F10202020100F0060
:100B000008F808080808F000203F21010101000052
:100B1000E01008080810E0000F18242438504F0097
:100B200008F8888888887000203F2000030C302057
:100B300000708808080838000038202121221C0095
:100B4000180808F8080818000000203F20000000DE
:100B500008F808000008F808001F202020201F00C7
:100B60000878880000C83808000007380E01000027
:100B7000F80800F80008F800033C0700073C0300F1
:100B8000081868808068180820302C03032C302057
:100B90000838C800C83808000000203F20000000C6
:100BA00010080808C838080020382621202018001E
:100BB000000000FE020202000000007F40404000F2
:100BC000000C30C000000000000000010638C0002A
:100BD00000020202FE000000004040407F000000D2
:100BE00000000402020204000000000000000000F7
:100BF00000000000000000008080808080808080F5
:100C000000020204000000000000000000000000DC
:100C100000008080808000000019242222223F20D2
:100C200008F8008080000000003F112020110E0015
:100C30000000008080800000000E112020201100A4
:100C4000000000808088F800000E112020103F2056
:100C50000000808080800000001F222222221300DA
:100C6000008080F0888888180020203F2020000025
:100C70000000808080808000006B949494936000DA
:100C800008F8008080800000203F210000203F20E5
:100C900000809898000000000020203F20200000E5
:100CA000000000809898000000C08080807F0000D5
:100CB00008F8000080808000203F24022D302000B2
:100CC000000808F8000000000020203F202000005D
:100CD0008080808080808000203F20003F20003F77
:100CE0008080008080800000203F210000203F2085
:100CF0000000808080800000001F202020201F0036
:100D0000808000808000000080FFA12020110E0064
:100D10000000008080808000000E112020A0FF8055
:100D2000808080008080800020203F212000010002
:100D30000000808080808000003324242424190057
:100F9100D3EF9400EE940040147D6E7C00ED1D7043
:0D0FA100011CED4C70F7EF1F70E61E80E3A1
:010FAE002220
:09100600D293D292C292C293224D
:09100F00C293C292D293D2922244
:070EC500AD071210067F7853
:100ECC00E4FEEEC39408748094805015EF30E70470
:100EDC00D2928002C292D293C293EF25E0FF0E8091
:070EEC00E1D292D293C29300
:010EF30022DC
:100FEA00120EC57F40120ECCAF05120ECC02100FA6
:0D0FCD0024B0FF120FDA7F01120FDA7F103F
:100FDA00120EC5E4FF120ECCAF05120ECC02100F92
:100FAF00AC07ED24B0FF120FDAEC54F0C4540F4429
:0E0FBF0010FF120FDAEC540F4401FF020FDA9C
:020F2100AC071B
:100F2300E4FBEBC3940874809480501BEB120FCD49
:100F3300E4FAEAC39480748094805008AF04120FDB
:070F4300EA0A80EE0B80DBDF
:010F4A002284
:100F4B00E4FCECC3940874809480501BEC120FCD1E
:100F5B00E4FBEBC39480748094805008E4FF120F81
:070F6B00EA0B80EE0C80DBB5
:010F7200225C
:100E2C007FF47E01120F917FAE120FDAE4FF120FE6
:100E3C00D57F40120FDA7F81120FDA7FCF120FDAD3
:100E4C007FA1120FDA7FC8120FDA7FA6120FDA7F9A
:100E5C00A8120FDA7F3F120FDA7FD3120FDAE4FFFA
:100E6C00120FDA7FD5120FDA7F80120FDA7FD912C8
:100E7C000FDA7FF1120FDA7FDA120FDA7F12120F0C
:100E8C00DA7FDB120FDA7F40120FDA7F20120FDAD3
:100E9C007F02120FDA7F8D120FDA7F14120FDA7FB6
:100EAC00A4120FDA7FA6120FDA7FAF120FDAE4FF6B
:090EBC00120F21E4FDFF020FAF4B
:100D4000900000EFF0A3ECF0A3EDF0A3EBF0A3EA2A
:040D5000F0A3E9F033
:100D5400E4A3F0FCA3F0900003E0FBA3E0FAA3E01B
:100D6400F9900007E0F582758300120EF470030217
:100D74000E2B24E0900006F0900000E0D3947874E9
:100D84008094804002E4F0D3900002E0943C900010
:100D940001E0648094804004E4F0A3F0900000E05B
:100DA400FFA3A3E0FD120FAFE4FCECC3940874802E
:100DB40094805025900006E075F010A42CF582E490
:100DC40035F0F583E5822400F582E5833408F58364
:100DD400E493FF120FEA0C80D1900000E0FFA3A37C
:100DE400E004FD120FAFE4FCECC39408748094801B
:100DF4005025900006E075F010A42CF582E435F03F
:100E0400F583E5822408F582E5833408F583E493C9
:100E1400FF120FEA0C80D1900000E02408F090004B
:070E240007E004F0020D5A83
:010E2B0022A4
:100EF400BB010CE58229F582E5833AF583E02250B3
:100F040006E92582F8E622BBFE06E92582F8E222FC
:0D0F1400E58229F582E5833AF583E4932216
:00000001FF
