:03000000020F49A3
:0C0F4900787FE4F6D8FD758107020E30B9
:100E3000120D97900005E4F0A37408F0A374FFF07E
:100E4000A37408F0A37400F07B807A00E4FDFCFF3B
:0F0E5000120CCE7F407E1F120EE0120EB880D41F
:100800000003050911FF118905C300E000F000F89D
:10081000000000000000004428FF11AA440000006E
:1008200000000000000000000000000000000000C8
:1008300000000000000000000000000000000000B8
:1008400000000000000000000000000000000000A8
:100850000000000000000000000083013844829284
:1008600092740183000000000000007C44C7017DF9
:100870007D7D7D017D7D7D7D017D7D7D7D01FF0017
:100880000000000000010001000100010001000162
:100890000000000000000000000101000000000056
:1008A0000000000000000000000000000000000048
:1008B0000000000000000000000000000000000038
:1008C0000000000000000000000000000000000028
:1008D0000000000000000000000001010000000016
:1008E0000000010100000000000000000001010103
:1008F00001010101010101010101010101010100E9
:1009000000000000000000000040404040400000A7
:100910006D6D6D6D6D000060606060600000404056
:100920004040400000000000000000000000000007
:1009300000000000000000000000000000000000B7
:1009400000000000000000000000000000000000A7
:100950000000000000000000000000000000000097
:100960000000000000000000000000000000000087
:100970000000000000000000000000000000000077
:10098000000000000000000000DBDBDBDBDB000020
:10099000DBDBDBDBDB0000DBDBDBDBDB0000DBDB13
:1009A000DBDBDB0000DADADADADA0000D8D8D8D814
:1009B000D80000C0C0C0C0C00000C0C0C0C0C000DF
:1009C00000C0C0C0C0C00000C0C0C0C0C000008027
:1009D0008080808000000000000000000000000017
:1009E0000000000000000000000000000000000007
:1009F00000000000000000000000000000000000F7
:100A000000000000000000000006060606060000C8
:100A1000060606060600000606060606000006068E
:100A20000606060000060606E6662000060686069E
:100A300006000006060606860000060606060600F4
:100A400000868686868680808686068686C0C086E4
:100A500086860606D03076060606060000060606DE
:100A6000060600000606060606000006060606063E
:100A70000000060606060600000000000000000058
:100A80000000000000000000000000000000000066
:100A90000000000000000000000000000000000056
:100AA00000000000000000000000601C00FE0001CB
:100AB0000200C41820029E63B20E00FF8181FF0075
:100AC000008040300F00000000FF0023EAAABFAA08
:100AD000EA033F00FF0000000000000000000000EB
:100AE0000000000000000000000000000000000006
:100AF00000000000000000000000000000000000F6
:100B000000000080808000000000008080800000E5
:100B100000000000000000000000000000000000D5
:100B200000000000000000000E0C080000010101A0
:100B3000010100000001000000010081808081802F
:100B4000818080808001010101000000010000001F
:100B500001000101090C0E0000000000000000006F
:100B60000000000000000000C0C0C0C0C0C0C0C085
:100B7000C0C0C0C0C0C0C0C0C0C0C0C0C0C0C00035
:100B8000001E21404050215E001E21404050215E49
:100B90000000000000000000000000000000000055
:100BA0000000000000000000000000000000000045
:100BB0000000000000000000000000FFFFC1C1FFB6
:100BC000FFC1C1FFFF0000000000000000000000A6
:100BD0000000000000000000000000000000000015
:100BE0000000000000000000FFFF80FCF3EFF3FCBA
:100BF00080FF80EEEEEEF5FBFF9CBEB6B688FF00F0
:100EE000D3EF9400EE940040147D6E7C00ED1D70F5
:0D0EF000011CED4C70F7EF1F70E61E80E353
:010EFD0022D2
:090F5500D293D292C292C29322FF
:090F5E00C293C292D293D29222F6
:070E5F00AD07120F557F786B
:100E6600E4FEEEC39408748094805015EF30E704D6
:100E7600D2928002C292D293C293EF25E0FF0E80F7
:070E8600E1D292D293C29366
:010E8D002242
:100F3900120E5F7F40120E66AF05120E66020F5E3B
:0D0F1C0024B0FF120F297F01120F297F1052
:100F2900120E5FE4FF120E66AF05120E66020F5E27
:100EFE00AC07ED24B0FF120F29EC54F0C4540F448C
:0E0F0E0010FF120F29EC540F4401FF020F29AF
:020E8E00AC07AF
:100E9000E4FBEBC3940874809480501BEB120F1C8E
:100EA000E4FAEAC39480748094805008AF04120F6F
:070EB000390A80EE0B80DB24
:010EB7002218
:100EB800E4FCECC3940874809480501BEC120F1C63
:100EC800E4FBEBC39480748094805008E4FF120F15
:070ED800390B80EE0C80DBFA
:010EDF0022F0
:100D97007FF47E01120EE07FAE120F29E4FF120FDF
:100DA700247F40120F297F81120F297FCF120F292D
:100DB7007FA1120F297FC8120F297FA6120F297F43
:100DC700A8120F297F3F120F297FD3120F29E4FFA3
:100DD700120F297FD5120F297F80120F297FD91271
:100DE7000F297FF1120F297FDA120F297F12120FB5
:100DF700297FDB120F297F40120F297F20120F292D
:100E07007F02120F297F8D120F297F14120F297F5E
:100E1700A4120F297FA6120F297FAF120F29E4FF13
:090E2700120E8EE4FDFF020EFE26
:100CCE00900000EFF0A3ECF0A3EDF0A3EAF0A3EB9D
:010CDE00F025
:100CDF00E490000AF0A3F0900005E0FAA3E0FB7C9B
:100CEF00007D08FFAE02120C2DED4C7011FC7D083B
:100CFF00AF03AE02120C2D90000DEFF08015900097
:100D0F0005E0FEA3E0FF7C007D08120C2DEF0490A0
:100D1F00000DF0900001A3E090000DF090000DE0A9
:100D2F00FDFFD3900006E09F7480F8900005E0640B
:100D3F0080984053900000E0FF120EFEE090000CF0
:100D4F00F090000CE0FFD3900004E09F7480F890C7
:100D5F000003E06480984027900007E0FBA3E0FACF
:100D6F00A3E0F9A3E475F001120C6385F082F5831B
:100D7F00120C00FF120F3990000CE004F080C290AB
:070D8F00000DE004F0809567
:010D9600223A
:100C0000BB010CE58229F582E5833AF583E02250A9
:100C100006E92582F8E622BBFE06E92582F8E222F3
:0D0C2000E58229F582E5833AF583E493220D
:100C2D00C2D5EC30E709B2D5E4C39DFDE49CFCEEE2
:100C3D0030E715B2D5E4C39FFFE49EFE120C79C3D5
:100C4D00E49DFDE49CFC8003120C7930D507C3E4D0
:060C5D009FFFE49EFE2251
:100C6300A3F8E0C5F025F0F0E58215827002158344
:060C7300E0C838F0E822A1
:100C7900BC000BBE0029EF8DF084FFADF022E4CC5F
:100C8900F875F008EF2FFFEE33FEEC33FCEE9DEC28
:100C9900984005FCEE9DFE0FD5F0E9E4CEFD22ED6E
:100CA900F8F5F0EE8420D21CFEADF075F008EF2FB8
:100CB900FFED33FD4007985006D5F0F222C398FDA9
:050CC9000FD5F0EA2246
:00000001FF
