:03000000020E7C71
:0C0E7C00787FE4F6D8FD758107020D3A7E
:100D3A00120CA17B017A00E4FDFC7F18120C007BE7
:100D4A00027A00E4FDFC7F28120C007B037A00E49F
:100D5A00FDFC7F38120C007B047A00E4FDFC7F481E
:100D6A00120C007B057A00E4FDFC7F58120C007F10
:0B0D7A00A07E0F120E06120DDE80B8E6
:1008000000000000000000000000000000000000E8
:1008100000000000000000000000000000000000D8
:10082000000202FAFAAAAAFFFFAAAAFAFA02020032
:10083000004272723A7A424B5B52626213776600F0
:10084000203C1CFFFFB0B424243F3FE4E4242420D8
:10085000020203FFFF0001051D59C1FF7F010101D5
:10086000000000F8F8484C4F4B4A4848F8F80000A0
:10087000000000FFFF44444444444444FFFF0000A0
:10088000202424E4E42424243010FFFF10F0F0009E
:10089000081C1F0B0C0D4F6E341C0F23607F3F0094
:1008A00080C060F8FF070200FFFFE0703C1C0800FA
:1008B0000000007F7F0406033F7F404040787800BF
:1008C0000000000000000000000000000000000028
:1008D0000000000000000000000000000000000018
:1008E0000000000000000000000000000000000008
:1008F00000000000000000000000000000000000F8
:1009000010218670007E4A4A4A4A4A7E0000000052
:1009100002FE01407F41417F41417F41417F4000D4
:100920000000FC042424FCA5A6A4FC242424040028
:1009300080601F808042462A12122A2642C0400050
:10094000080808FF8848009848280A2C48D808005A
:100950000242817F0000404242427E4242424000C9
:1009600000504F4A48FF48484800FC0000FF000084
:1009700000003F0101FF21613F000F40807F000028
:1009800000908CA4A4A4A5A6A4A4A4A4948C040060
:100990000080402018070000003F404040700000E9
:1009A000000474D4FFD47404100CB744B40C0400D5
:1009B0000042437A4342437E4B4B4A4A4243010042
:1009C000080808080808F94A4C4848C808080800F8
:1009D000404020100C0300002040403F0000000079
:1009E00000202C246474ADA6E43424242C240000BC
:1009F0000024242515150DFE040D1714246424006D
:100A0000000000F848484C4B4A484848F8000000AD
:100A1000000000FF4444444444444444FF000000B8
:100A2000202424E4242424201010FF1010F00000BF
:100A3000081C0B080C054E24100C0320403F00003E
:100A4000080808FF8848009848280A2C48D8080059
:100A50000242817F0000404242427E4242424000C8
:100A600000504F4A48FF48484800FC0000FF000083
:100A700000003F0101FF21613F000F40807F000027
:100A80000807FAAAAEAAAAA8ACABAAFE0A020200FC
:100A900008088B6A1E0A0A0A0AFE0A0B08080800E0
:100AA000106001C63000101010FF10101010000070
:100AB0000404FE01004161514D43414151E10100F7
:100AC0004041CE04008040BE828282BEC0404000D1
:100AD00000007F20908040432C10102C43C0400029
:100AE00020212EE4000020202020FF2020202000B4
:100AF0000000007F201008000000FF000000000040
:100B00000000F848484848FF48484848F8000000B6
:100B100000000F040404043F444444444F40700068
:100B200000000202020202E2120A06020080000035
:100B3000010101010141817F010101010101010068
:100B40000020202222E2222222E222222220200051
:100B5000004020100C030000003F40404040700067
:100B60004020F80F82601E1410FF101010100000BB
:100B70000000FF000101010101FF0101010101006D
:100B8000000000007E4848484848484848CC0800D3
:100B9000000404040404040404244644201F000048
:100BA000849494FF949480242424FC121312000053
:100BB000201806FF021C0A0202023F414141710057
:100BC0001010D0FE509000101010D0FE1010100029
:100BD000080601FF000110080443807F00000000A8
:100BE0009088A7A2A6BAA2F8A7A2A6BAA28280005D
:100BF00000040404040C340444847F04040400004E
:100E0600D3EF9400EE940040147D6E7C00ED1D70CF
:0D0E1600011CED4C70F7EF1F70E61E80E32D
:010E230022AC
:090E8800D293D292C292C29322CD
:090E9100C293C292D293D29222C4
:070D8500AD07120E887F7814
:100D8C00E4FEEEC39408748094805015EF30E704B1
:100D9C00D2928002C292D293C293EF25E0FF0E80D2
:070DAC00E1D292D293C29341
:010DB300221D
:0D0E420074002BF58274083AF583E493FFE9
:100E4F00120D857F40120D8CAF05120D8C020E9185
:0D0E5F0024B0FF120E6C7F01120E6C7F108C
:100E6C00120D85E4FF120D8CAF05120D8C020E9144
:100E2400AC07ED24B0FF120E6CEC54F0C4540F4424
:0E0E340010FF120E6CEC540F4401FF020E6C06
:020DB400AC078A
:100DB600E4FBEBC3940874809480501BEB120E5F27
:100DC600E4FAEAC39480748094805008AF04120E4B
:070DD6004F0A80EE0B80DBE9
:010DDD0022F3
:100DDE00E4FCECC3940874809480501BEC120E5FFC
:100DEE00E4FBEBC39480748094805008E4FF120EF1
:070DFE004F0B80EE0C80DBBF
:010E050022CA
:100CA1007FF47E01120E067FAE120E6CE4FF120E6F
:100CB100677F40120E6C7F81120E6C7FCF120E6C1B
:100CC1007FA1120E6C7FC8120E6C7FA6120E6C7F74
:100CD100A8120E6C7F3F120E6C7FD3120E6CE4FFD4
:100CE100120E6C7FD5120E6C7F80120E6C7FD912A2
:100CF1000E6C7FF1120E6C7FDA120E6C7F12120EE7
:100D01006C7FDB120E6C7F40120E6C7F20120E6C1A
:100D11007F02120E6C7F8D120E6C7F14120E6C7F8F
:100D2100A4120E6C7FA6120E6C7FAF120E6CE4FF44
:090D3100120DB4E4FDFF020E24D2
:100C0000900000ECF0A3EDF0A3EAF0A3EBF0A9074D
:100C1000E4FC900002E0FEA3E07805C333CE33CEBF
:100C2000D8F9FBAA06E9D39478748094804002E452
:100C3000F9D3900001E0943C900000E0648094803F
:100C40004004E4F0A3F0D3900003E0940790000286
:100C5000E0648094804004E4F0A3F0AF01900000D1
:100C6000A3E0FD120E24E4FCECC394107480948085
:100C7000500B120E420BBB00010A0C80EBAF01902F
:100C80000000A3E004FD120E24E4FCECC3941074F5
:100C9000809480500B120E420BBB00010A0C80EBBB
:010CA0002231
:00000001FF
